:020000040800F2
:100000000080012065530008695200086B52000807
:100010006D5200086F520008715200080000000085
:100020000000000000000000000000007352000803
:10003000755200080000000077520008795200084D
:10004000B5530008B5530008B5530008B553000870
:10005000B5530008B5530008B5530008B553000860
:10006000B5530008B5530008B5530008B553000850
:10007000B5530008B5530008B5530008B553000840
:10008000B5530008B5530008B5530008B553000830
:10009000B5530008B5530008B55300087D52000859
:1000A000B5530008B5530008B5530008B553000810
:1000B000B5530008B5530008B5530008B553000800
:1000C000B5530008B5530008B5530008B5530008F0
:1000D000B5530008A1520008B5530008B5530008F5
:1000E000AD520008B5530008B5530008B5530008D9
:1000F000B5530008B5530008B5530008B5530008C0
:10010000B5530008B5530008B5530008DD52000888
:10011000B5530008B5530008B5530008B55300089F
:10012000B5530008B5530008B5530008B55300088F
:10013000B5530008B5530008B5530008B55300087F
:10014000B5530008B5530008B5530008B55300086F
:10015000B5530008B5530008B5530008B55300085F
:10016000B5530008B5530008B5530008B55300084F
:10017000B5530008B553000800000000000000005F
:08018000B5530008B553000857
:1001880010B5054C237833B9044B13B10448AFF3C9
:1001980000800123237010BD8000002000000000B3
:1001A800E855000808B5034B1BB103490348AFF3F2
:1001B800008008BD0000000084000020E855000809
:1001C80081F0004102E000BF83F0004330B54FEA00
:1001D80041044FEA430594EA050F08BF90EA020F6D
:1001E8001FBF54EA000C55EA020C7FEA645C7FEA00
:1001F800655C00F0E2804FEA5454D4EB5555B8BF23
:100208006D420CDD2C4480EA020281EA030382EA93
:10021800000083EA010180EA020281EA0303362D25
:1002280088BF30BD11F0004F4FEA01314FF4801CF8
:100238004CEA113102D0404261EB410113F0004F0A
:100248004FEA03334CEA133302D0524263EB4303C1
:1002580094EA050F00F0A780A4F10104D5F1200E5F
:100268000DDB02FA0EFC22FA05F2801841F10001BA
:1002780003FA0EF2801843FA05F359410EE0A5F18E
:1002880020050EF1200E012A03FA0EFC28BF4CF0BF
:10029800020C43FA05F3C01851EBE37101F0004575
:1002A80007D54FF0000EDCF1000C7EEB00006EEB82
:1002B8000101B1F5801F1BD3B1F5001F0CD349080C
:1002C8005FEA30004FEA3C0C04F101044FEA445263
:1002D80012F5800F80F09A80BCF1004F08BF5FEAEA
:1002E800500C50F1000041EB045141EA050130BDCA
:1002F8005FEA4C0C404141EB010111F4801FA4F16D
:100308000104E9D191F0000F04BF01460020B1FAC1
:1003180081F308BF2033A3F10B03B3F120020CDAF9
:100328000C3208DD02F1140CC2F10C0201FA0CF0D7
:1003380021FA02F10CE002F11402D8BFC2F1200C3C
:1003480001FA02F120FA0CFCDCBF41EA0C019040F2
:10035800E41AA2BF01EB0451294330BD6FEA04043B
:100368001F3C1CDA0C340EDC04F11404C4F1200226
:1003780020FA04F001FA02F340EA030021FA04F338
:1003880045EA030130BDC4F10C04C4F1200220FA8F
:1003980002F001FA04F340EA0300294630BD21FACD
:1003A80004F0294630BD94F0000F83F4801306BF93
:1003B80081F480110134013D4EE77FEA645C18BF87
:1003C8007FEA655C29D094EA050F08BF90EA020F1E
:1003D80005D054EA000C04BF1946104630BD91EA16
:1003E800030F1EBF0021002030BD5FEA545C05D119
:1003F8004000494128BF41F0004130BD14F5800458
:100408003CBF01F5801130BD01F0004545F0FE41CB
:1004180041F470014FF0000030BD7FEA645C1ABF00
:10042800194610467FEA655C1CBF0B46024650EA37
:10043800013406BF52EA033591EA030F41F4002163
:1004480030BD00BF90F0000F04BF0021704730B5E9
:100458004FF4806404F132044FF000054FF00001BE
:1004680050E700BF90F0000F04BF0021704730B57F
:100478004FF4806404F1320410F0004548BF404254
:100488004FF000013EE700BF42004FEAE2014FEAA9
:1004980031014FEA02701FBF12F07F4393F07F4F84
:1004A80081F06051704792F0000F14BF93F07F4FB6
:1004B800704730B54FF4607401F0004521F00041F9
:1004C80020E700BF50EA010208BF704730B54FF07F
:1004D80000050AE050EA010208BF704730B511F084
:1004E800004502D5404261EB41014FF4806404F1BC
:1004F80032045FEA915C3FF4DCAE4FF003025FEA3E
:10050800DC0C18BF03325FEADC0C18BF033202EBC5
:10051800DC02C2F1200300FA03FC20FA02F001FA1F
:1005280003FE40EA0E0021FA02F11444C1E600BFBE
:100538004FEA4102B2F1E04324BFB3F5001CDCF1FD
:10054800FE5C0DD901F0004C4FEAC0024CEA507035
:10055800B2F1004F40EB830008BF20F00100704764
:1005680011F0804F21D113F13872BCBF01F0004067
:10057800704741F480114FEA5252C2F11802C2F199
:10058800200C10FA0CF320FA02F018BF40F001001A
:100598004FEAC1234FEAD32303FA0CFC40EA0C00CC
:1005A80023FA02F34FEA4303CCE77FEA625307D109
:1005B80050EA01331EBF4FF0FE4040F44000704740
:1005C80001F0004040F0FE4040F40000704700BFDA
:1005D80053B94AB9002908BF00281CBF4FF0FF31A2
:1005E8004FF0FF3000F07AB9ADF1080C6DE904CE98
:1005F80000F006F8DDF804E0DDE9022304B07047F6
:100608002DE9F0478C460D460446089E002B51D133
:100618008A4217466DD9B2FA82FEBEF1000F0BD09E
:10062800CEF1200C01FA0EF520FA0CFC02FA0EF7B6
:100638004CEA050C00FA0EF44FEA174A250CBCFBED
:10064800FAF81FFA87F90AFB18CC45EA0C4508FBAB
:1006580009F3AB420AD9ED1908F1FF3280F0238182
:10066800AB4240F22081A8F102083D44ED1AA4B241
:10067800B5FBFAF00AFB105544EA054400FB09F9FA
:10068800A14509D9E41900F1FF3380F00A81A14599
:1006980040F2078102383C44A4EB090440EA0840D0
:1006A8000021002E61D024FA0EF400233460736018
:1006B800BDE8F0878B4207D9002E54D0002186E888
:1006C80021000846BDE8F087B3FA83F1002940F01D
:1006D8008E80AB4202D3824200F2FA80841A65EB24
:1006E80003050120AC46002E3FD086E81010BDE877
:1006F800F08712B90127B7FBF2F7B7FA87FEBEF108
:10070800000F34D1EB1B3A0C1FFA87FC0121B3FB15
:10071800F2F8250C02FB183345EA03450CFB08F3F5
:10072800AB4207D9ED1908F1FF3002D2AB4200F213
:10073800D1808046ED1AA3B2B5FBF2F002FB10554A
:1007480043EA05440CFB00FCA44507D9E41900F171
:10075800FF3302D2A44500F2B8801846A4EB0C047B
:1007680040EA08409DE731463046BDE8F087CEF1C3
:10077800200405FA0EF307FA0EF720FA04F83A0CEB
:1007880025FA04F448EA0308B4FBF2F14FEA1845E5
:1007980002FB11441FFA87FC45EA044501FB0CF3F0
:1007A800AB4200FA0EF409D9ED1901F1FF3080F0DF
:1007B8008A80AB4240F2878002393D44EB1A1FFA27
:1007C80088F5B3FBF2F002FB103345EA034500FB62
:1007D8000CF3AB4207D9ED1900F1FF386FD2AB42E9
:1007E8006DD902383D44EB1A40EA01418FE7C1F167
:1007F800200722FA07F88B4005FA01F448EA0303B8
:1008080020FA07FE4FEA134CFD404EEA040EB5FBF2
:10081800FCF94FEA1E440CFB19551FFA83F844EA09
:10082800054509FB08F4AC4202FA01F200FA01FAA4
:1008380008D9ED1809F1FF3043D2AC4241D9A9F1EA
:1008480002091D442D1B1FFA8EFEB5FBFCF00CFBA4
:1008580010554EEA054400FB08F8A04507D9E418EE
:1008680000F1FF3529D2A04527D902381C4440EAB7
:100878000940A4EB0804A0FB02894C45C6464D4636
:1008880015D312D056B1BAEB0E0364EB050404FA83
:1008980007F7CB401F43CC40376074600021BDE8A8
:1008A800F0871846F8E69046E0E6C245EAD2B8EB8B
:1008B800020E69EB03050138E4E72846D7E740460E
:1008C80091E78146BEE7014678E702383C4445E7B0
:1008D800084608E7A8F102083D442BE7704700BF27
:1008E800104B30B5DA6C104C42F00202DA64DB6C63
:1008F80087B003F002030093009B01234FF4804567
:100908000293039301A9022320460493019500F062
:1009180087FA20460022294600F0EEFB002007B0A7
:1009280030BD00BF001002400004004808B54FF475
:100938008041024800F0E5FB002008BD00040048A3
:100948001F4B30B5DA6C42F00402DA64DB6C87B016
:1009580003F004030093009B4FF400530193022318
:100968000546039304930C4631B90291154801A931
:1009780000F056FA204610E0134C144B114802932D
:1009880001A904EBC50400F04BFA1149204600F018
:1009980029FA014618B16FF0030007B030BD2046B0
:1009A8000C4A00F019FA04460028F4D102460F2137
:1009B800282000F0F3F8282000F024F9DAE700BF37
:1009C8000010024000080048040000200000111038
:1009D8000D000016F909000808B54FF40051034846
:1009E80000F084FBB0FA80F0400908BD0008004818
:1009F80008B5002003F02CFC08BD00000A4A4FF49B
:100A0800E13C08B50C2180E8041000228260C26035
:100A1800026141618261C2610262426202F0ABF925
:100A2800003018BF012008BD0038014030B501284A
:100A380089B039D81E491F4A51F82010C301D4186B
:100A4800D1501D4B1D481A6E42F480421A661A6E28
:100A580002F480420192019ADA6C42F00202DA64EE
:100A6800DB6C03F002030293029BC023039302236F
:100A7800049303230025069303A9072307930595E9
:100A880000F0CEF92A462946252000F087F82520CF
:100A980000F0B8F82046FFF7B1FFA8420CBF28467F
:100AA8006FF0030009B030BD6FF00100FAE700BF36
:100AB80000000020F8040020001002400004004854
:100AC80038B50F4B0546186808B9012038BD0D4ADE
:100AD8004FF47A73B3FBF0F31068B0FBF3F000F057
:100AE8009FF804460028F0D10F2DEED8024629467B
:100AF8004FF0FF3000F052F8034B20461D6038BD20
:100B08000C000020180000201000002010B5032061
:100B180000F032F80020FFF7D3FF044618B904F0BC
:100B280065FA204610BD0124FBE70000034A04498A
:100B3800136809680B441360704700BF78050020EC
:100B48000C000020014B1868704700BF7805002092
:100B580038B50446FFF7F6FF631C1CBF054B1B683E
:100B6800054618BFE418FFF7EDFF401B8442FAD88A
:100B780038BD00BF0C000020074AD36823F4E063A7
:100B88001B041B0C43F0BF63000243F4003300F462
:100B9800E0600343D360704700ED00E0174B30B5C9
:100BA800DC68C4F30224C4F10703251D042B28BF05
:100BB8000423062D4FF0010505FA03F303F1FF3373
:100BC8008CBF033C00241940A14005FA04F4013C01
:100BD8002240002842EA01024FEA0212ADBF00F1AA
:100BE800604000F00F00064B00F56140B5BFD2B27F
:100BF800D2B21A5480F8002330BD00BF00ED00E0E7
:100C080014ED00E0002808DB4209012300F01F0072
:100C180003FA00F0014B43F82200704700E100E0BE
:100C28000138B0F1807F0AD2064B074A5860F0219C
:100C380082F823100020072298601A60704701206C
:100C4800704700BF10E000E000ED00E0144B984250
:100C580017D02033984216D02033984215D020332D
:100C6800984214D02033984213D02033984212D09F
:100C78002033984211D0203398420CBF072000201F
:100C880070470020704701207047022070470320FA
:100C9800704704207047052070470620704700BF42
:100CA8000060014038B50446002867D00068344D1C
:100CB800FFF7CCFF55F82030002B5FD1204604F019
:100CC800ADF9304B1A6801321A601B68012B19D133
:100CD8002D4B1A6822F080421A601A68A1680A43EC
:100CE8001A601A6822F47F021A602279012A05D153
:100CF800E1681A68013942EA01421A601A6842F04A
:100D080000421A6020686169036823F47143036034
:100D1800236902680B43A1690B431343036003680B
:100D2800216A23F00F030360E36902680B4313434E
:100D380003608368616AA26A23F45F03836083683F
:100D4800013A0B4343EA024383604368226B03F092
:100D580007034360436843EAC203E26A43EA0223A3
:100D68004360036843F080030360012384F8343050
:100D7800FFF76CFF45F82040002038BD012038BD42
:100D88009C000020BC0000200060014090F8252055
:100D9800022A10B503D00422C263012010BD0268E4
:100DA800046C1168836B21F00E011160116821F049
:100DB80001011160426C012102F01C0201FA02F2E9
:100DC8006260002480F8251080F8244013B1984709
:100DD800204610BD184610BD11B94260084670473C
:100DE8000120704710B10160002070470120704752
:100DF8000368012203F01F01C3F300438A405B012B
:100E0800064910B45C58224205D05A50436813B1C1
:100E18005DF8044B18475DF8044B70471404014013
:100E28002DE9F04F85B00B68DFF8A881674C019376
:100E38000023019ADA4002D105B0BDE8F08F0126FF
:100E4800019A9E4012EA060E00F0B1804A6822F02C
:100E58001007022F16D14FEAD30900EB890903F0D6
:100E6800070AD9F820504FEA8A0A4FF00F0C0CFAFB
:100E78000AFC25EA0C0C0D6905FA0AF545EA0C0589
:100E8800C9F820504FEA430C0325D0F800B005FA02
:100E98000CF5ED4302F0030A0BEA050B0AFA0CF90C
:100EA800013F49EA0B09012FC0F8009011D8876863
:100EB80005EA0709CF6807FA0CF747EA09078760C8
:100EC800476827EA0609C2F300179F4047EA09075F
:100ED8004760BAF1030F07D1C76A27EA0606C2F3CB
:100EE800C0079F403E43C662C66835408E6806FA12
:100EF8000CF63543C560D50059D5D8F8605045F093
:100F08000105C8F86050D8F8605023F0030606F1D0
:100F1800804605F0010506F58036039503F0030CBD
:100F2800039DB5684FEA8C0C0F2707FA0CF7B0F150
:100F3800904F25EA07073CD0254DA8423BD005F540
:100F48008065A84239D005F58065A84237D005F5F7
:100F58008065A84235D005F58065A84233D005F5EF
:100F68008065A84214BF0725062505FA0CF53D4300
:100F7800B56025686FEA0E06D70354BF35404EEAC0
:100F8800050525606568970354BF35404EEA050599
:100F98006560A568D70254BF35404EEA0505A560CF
:100FA800E568920254BF35404EEA0505E560013315
:100FB8003FE70025D9E70125D7E70225D5E703252F
:100FC800D3E70425D1E70525CFE700BF000401409A
:100FD80000040048001002402DE9F04F404CDFF8B3
:100FE80008B100234FF0010A4FF00F0831FA03F25D
:100FF80001D1BDE8F08F0AFA03F511EA050660D0C1
:1010080023F0030707F1804707F5803703F0030E45
:10101800BA684FEA8E0E08FA0EF9B0F1904F02EA5C
:10102800090C50D02F4A90424FD002F5806290426E
:101038004DD002F5806290424BD002F5806290421A
:1010480049D002F58062904247D058450CBF06222D
:10105800072202FA0EF2944510D12268F643324074
:101068002260626832406260A2683240A260E26830
:101078001640E660BA6822EA0902BA6006680327E1
:101088005A0007FA02F223FA07F7164300EB87071C
:10109800066003F00706D7F820E0B60008FA06F65F
:1010A8002EEA06063E628668D24316408660466887
:1010B800ED432E404660C6683240C260C26A1540A1
:1010C800C562013392E70022C3E70122C1E7022289
:1010D800BFE70322BDE70422BBE70522B9E700BF4B
:1010E8000004014000040048001800480369194240
:1010F80014BF0120002070470AB1816170478162E6
:10110800704743690B4214BF816281617047704721
:1011180008B5044B5969014202D05861FFF7F7FF3F
:1011280008BD00BF0004014010B5044600284AD09D
:1011380090F8413003F0FF021BB980F8402003F01B
:101148009FFF242384F841302368E1681A6822F05D
:1011580001021A60626822F070621A619A680129B5
:1011680022F400429A60A26824D142F400429A60B4
:101178005A68616942F0007242F400425A60DA68C3
:1011880022F40042DA6022690A43A16942EA012294
:10119800DA60216AE2690A431A601A6842F00102B9
:1011A8001A6000202023606484F84130206384F8AA
:1011B800420010BD42F4044202299A6004BF4FF471
:1011C80000625A60D4E7012010BD90F84120D2B2E5
:1011D800202A10B51DD190F84030012B19D02423B6
:1011E80080F8413003681C6824F001041C601C6806
:1011F80024F480541C601C6821431960196841F06C
:1012080001011960002380F8412080F84030184619
:1012180010BD022010BD10B590F84140E4B2202C5A
:101228001CD190F84030012B18D0242380F841308D
:1012380003681A6822F001021A601A6822F47062C0
:1012480042EA012119601A6842F001021A6000237B
:1012580080F8414080F84030184610BD022010BD8B
:10126800F0B504468BB060B390F8BD33056803F061
:10127800FF021BB980F8BC2303F0A2FF032384F804
:10128800BD33EB6B254613F4807355F8100B08BF7C
:10129800236101F0EEFD0FCD6E460FC60FCD0FC6D0
:1012A80095E8030086E803002546271D97E80E0009
:1012B80055F8100B01F0A6FD064620B1022384F86C
:1012C800BD33012556E00146206801F0D8FD3046BF
:1012D800D4F804E01C264FF0010C0146C2B2964532
:1012E80000F101001CD800231C261946D8B28645F7
:1012F80003F1010322D80FCD6E460FC60FCD0FC6DE
:1013080095E8030086E8030097E80E00206801F0DE
:10131800F7FD0123054600B3022284F8BD23D0E778
:1013280006FB024383F83DC083F83C20A3F8422023
:1013380083F83F10596499641965CFE706FB0042AA
:1013480082F8FD1182F8FC0182F8FF11C2F804123C
:10135800C2F80812C2F81012C8E784F8380084F8F6
:10136800BD33636A012B02D1204600F006F82068DD
:1013780001F06EFE28460BB0F0BD0268034601215D
:10138800C0F8FC13002083F8F403936943F000636A
:101398009361536D43F0805343F0030353657047E3
:1013A800024A136843F4807313607047007000406A
:1013B800024B186800F4C060704700BF007000401E
:1013C800174B1A68B0F5007F02F4C0621CD1B2F561
:1013D800007F15D01A6822F4C06242F400721A60C5
:1013E800104A116832224A430F49B2FBF1F21946FA
:1013F80001325869400500D522B94B695B050DD407
:1014080000207047013AF4E7B2F5806F1FBF1A68F1
:1014180022F4C06242F480621A60F1E70320704748
:10142800007000401800002040420F00024A536834
:1014380043F4806353607047007000402DE9F04129
:10144800069D04460F461646984621688A683A4221
:1014580014BF01220022B24202D10020BDE8F0816F
:101468006B1CF3D0FFF76EFBA0EB0800854201D39D
:10147800002DEAD1042384F83930E36B43F00103EB
:10148800E3630120BDE8F08137B50446FFF75AFB56
:101498000546002C49D094F83830012B47D0012359
:1014A80084F8383094F8392002F0FF033AB984F808
:1014B8003830204603F01AFE41F28833236420684E
:1014C800A1680268236C013922F4706242EA0122A1
:1014D80002602021009300222B462046FFF7AEFF32
:1014E800F0B9226865681168E36821F07F4143EA32
:1014F800056321F010010B431360A1696369556806
:101508000B43216943EA01430A4929400B435360CD
:10151800136843F0010313600123E06384F8393052
:10152800002384F8383003B030BD0120FBE70220E7
:10153800F9E700BFFEF8E0FF37B51E4DAB6DDA00E6
:10154800044618D5FFF734FFB0F5007F23D1802C6F
:1015580029D9A02C8CBF02200120174A136823F038
:10156800070303431360136803F00703181A18BF2F
:10157800012003B030BDAB6D43F08053AB65AB6D5C
:1015880003F080530193019BFFF712FFAB6D23F02B
:101598008053AB65D8E7802C07D808D0A4F1700336
:1015A80058425841D9E70020D7E70320D5E7022061
:1015B800D3E700BF0010024000200240224B9A6887
:1015C800D96812F00C0205D00C2A15D101F00301DC
:1015D800012918D119681D48090755BFD3F8941077
:1015E8001968C1F30321C1F3031150F821004AB36C
:1015F8000C2A09D000207047042A22D0082A14484F
:1016080018BF002070470020DA6802F00302022A9F
:1016180015D00F49032A08BF0846DA68D968DB687D
:10162800C3F34163C1F30621C2F3021201334843F5
:1016380001325B00B0FBF2F0B0FBF3F070470548F5
:10164800EBE70448704700BF001002403C56000812
:1016580000127A000024F4002DE9F743054608B982
:10166800012047E0A64C0368A668E768DB0606F099
:101678000C0607F0030773D51EB10C2E52D1012FAB
:1016880050D12368980702D5AB69002BE8D02368AE
:10169800286A190756BFD4F8943023681B0903F049
:1016A800F003834229D2FFF747FF0028D8D12368E7
:1016B80043F00803236023682A6A23F0F0031343E6
:1016C80023606368EA6923F47F4343EA0223636083
:1016D800FFF774FFA3688B4AC3F30313D35C03F0CB
:1016E8001F03D840884B1860884B1868FFF7E8F943
:1016F800002835D003B0BDE8F083236843F0080321
:101708002360236823F0F003034323606368EA69D6
:1017180023F47F4343EA02236360FFF70DFF0028A9
:10172800D6D09DE7AB69002B36D0236843F0010380
:101738002360FFF707FA804623689A0724D52368B1
:1017480043F00803236023682A6A23F0F003134355
:1017580023606368EA6923F47F4343EA02236360F2
:101768002B68D80729D42B68990767D42B681807E2
:1017780000F19C802B68590700F1CA80A86A0028EC
:1017880040F033810020B5E7FFF7DCF9A0EB080053
:101798000228D1D90320ADE7236823F00103236091
:1017A800FFF7D0F9804623689B07D9D5FFF7CAF918
:1017B800A0EB08000228F6D9ECE7082E03D00C2E7F
:1017C80008D1032F06D123689A03CCD56B68002B68
:1017D800C9D145E76B68B3F5803F10D1236843F45E
:1017E80080332360FFF7AEF9804623689B03BAD4A1
:1017F800FFF7A8F9A0EB08006428F6D9CAE7B3F503
:10180800A02F04D1236843F480232360E6E72268ED
:1018180022F480322260226822F480222260002B87
:10182800E0D1FFF78FF98046236898039BD5FFF72F
:1018380089F9A0EB08006428F6D9ABE7042E03D099
:101848000C2E10D1022F0ED12368590503D5EB6851
:10185800002B3FF405AF63682A6923F0F85343EA85
:101868000263636082E7EB687BB1236843F48073AB
:101878002360FFF767F9074623685A05EBD4FFF79B
:1018880061F9C01B0228F7D984E7236823F4807321
:101898002360FFF757F9074623685B057FF566AFB6
:1018A800FFF750F9C01B0228F6D973E76B699BB1A3
:1018B800D4F8943043F00103C4F89430FFF742F9A8
:1018C8000746D4F894309A073FF554AFFFF73AF932
:1018D800C01B0228F5D95DE7D4F8943023F0010342
:1018E800C4F89430FFF72EF90746D4F894309B07D4
:1018F8007FF540AFFFF726F9C01B0228F5D949E765
:101908000010024021560008180000201000002096
:10191800A36DD80029D4A36D43F08053A365A36DAC
:1019280003F080530193019B4FF00108794F3B6806
:10193800D9051DD5AB68012B2BD1D4F8903043F0D5
:101948000103C4F89030FFF7FDF841F288390746E3
:10195800D4F890309B0742D5B8F1000F3FF40EAF92
:10196800A36D23F08053A36508E74FF00008DDE777
:101978003B6843F480733B60FFF7E4F881463B68BB
:10198800DA05D7D4FFF7DEF8A0EB09000228F6D96C
:1019980000E7052B06D1D4F8903043F00403C4F8CF
:1019A8009030CAE7D4F8902022F00102C4F89020C1
:1019B800D4F8902022F00402C4F89020002BC2D161
:1019C800FFF7C0F841F288390746D4F890309807F5
:1019D800C2D5FFF7B7F8C01B4845F6D9DAE6FFF7D6
:1019E800B1F8C01B4845B3D9D4E60C2E5CD02368A7
:1019F800022823F0807323603BD1FFF7A3F8064643
:101A0800236899012FD4E268434B1340EA6A1343D1
:101A18006A6B43EA02232A6B013A43EA0213AA6B70
:101A2800120943EA4243EA6B5208013A43EA425335
:101A38002A6C5208013A43EA4263E360236843F0A0
:101A480080732360E36843F08073E360FFF77AF8FC
:101A5800054623689A013FF595AEFFF773F8401BDA
:101A68000228F6D996E6FFF76DF8801B0228C7D939
:101A780090E6236813F0205F02BFE36823F00303B6
:101A8800E360E36823F0887323F48033E360FFF7AF
:101A980059F8054623689B017FF574AEFFF752F8A5
:101AA800401B0228F6D975E601283FF423AEE36807
:101AB800EA6A03F0030191427FF4D2AD296B03F087
:101AC80070020139B2EB011F7FF4CAAD696B03F4F0
:101AD800FE42B2EB012F7FF4C3ADAA6B073A03F4C1
:101AE800003118BF012291427FF4BAADEA6B520867
:101AF80003F4C001013AB1EB425F7FF4B1AD2A6C47
:101B08005208013A03F0C063B3EB426F14BF0120DF
:101B18000020EFE5007000408C809DF92DE9F04130
:101B28000E46044610B90120BDE8F081414A136809
:101B380003F007038B422AD32368D90732D42168DC
:101B48008A075CD43B4A136803F007039E425ED3BE
:101B580011F0040F384D65D10B0706D5AB68226923
:101B680023F4605343EAC203AB60FFF727FDAB6879
:101B7800324AC3F30313BDE8F041D35C03F01F03FB
:101B8800D8402F4B18602F4B1868FEF799BF136881
:101B980023F007030B431360136803F0070399420C
:101BA800C1D1C9E76268244D032A2B681BD113F001
:101BB800007FB8D0AB6823F003031343AB60FEF794
:101BC800C1FF41F288380746AB68626803F00C032E
:101BD800B3EB820FB3D0FEF7B5FFC01B4045F3D976
:101BE8000320BDE8F081022A02D113F4003FE0E7A8
:101BF80012B913F0020FDCE713F4806FD9E70E4A2D
:101C0800A068936823F0F003034393609AE713688E
:101C180023F0070333431360136803F007039E425E
:101C280081D195E7AB68E26823F4E0631343AB60C6
:101C380092E700BF00200240001002402156000831
:101C48001800002010000020054B064A9B68C3F3CB
:101C58000223D35C044A106803F01F03D84070477E
:101C6800001002403156000818000020054B064AB3
:101C78009B68C3F3C223D35C044A106803F01F03B4
:101C8800D840704700100240315600081800002064
:101C9800F8B5454BDA6812F0030F05460E461C46A8
:101CA80000682AD0DA6802F0030282423CD1002A96
:101CB8003AD0DB686A68C3F302130133934233D125
:101CC800236823F080632360FEF73CFF0746236800
:101CD8001A0132D4AF68002E36D0012E50D12269B5
:101CE800286922F4C002400822F4FE42013842EA80
:101CF800072242EA4052226132E0022810D003282B
:101D080014D0012810D11B689F0738D5E3686A688A
:101D180023F07303013A184340EA0210E060CFE76A
:101D28001B6813F4806FF1D10120F8BD1A68910384
:101D3800ECD41B6813F4802FF5E7FEF703FFC01BF4
:101D48000228C4D90320F8BD2169EB6821F41F31AA
:101D580021F4407141EA07211B0941EA434121610D
:101D6800236843F080632360FEF7ECFE0646236891
:101D78001B0113D52369AA69134323610020F8BD09
:101D88002369686923F0C063400823F4FE430138DF
:101D980043EA072343EA40632361E1E7FEF7D2FE03
:101DA800801B0228E3D9CDE700100240F8B53D4B6F
:101DB800DA6812F0030F05460E461C46006828D064
:101DC800DA6802F0030282423AD1002A38D0DB688E
:101DD8006A68C3F302130133934231D1236823F0B5
:101DE80080532360FEF7AEFE074623689A0030D47E
:101DF800A868002E34D06369296923F0C0634908B4
:101E080023F4FE43013943EA002343EA4163636153
:101E180032E0022810D0032814D0012810D11B6802
:101E28009F0738D5E3686A6823F07303013A1843BB
:101E380040EA0210E060D1E71B6813F4806FF1D12B
:101E48000120F8BD1A689103ECD41B6813F4802FA5
:101E5800F5E7FEF777FEC01B0228C6D90320F8BDB8
:101E68006269EB6822F41F3222F4407242EA0022CF
:101E78001B0942EA43426261236843F080532360AE
:101E8800FEF760FE064623689B0005D563696A690C
:101E9800134363610020F8BDFEF754FE801B02283F
:101EA800F1D9DBE7001002402DE9F347066816F484
:101EB8000066044624D0416EB1F5800F2CD002D8BC
:101EC800C1B101261CE0B1F5000F0DD0B1F5400FEE
:101ED800F7D14D4A616ED2F8883023F440030B43A2
:101EE800C2F8883000260BE0474AD36843F48033B1
:101EF800D360EEE70430FFF7CBFE06460028E8D0B3
:101F08002368D80406D5A16EB1F1807F74D008D8B3
:101F1800A9B10126354621E000212030FFF746FF10
:101F2800EBE7B1F1007F04D0B1F1407FF1D1354644
:101F380009E0354AD36843F48033D360F7E7201DBE
:101F4800FFF7A6FE0546002D5CD12F4AA16ED2F8F8
:101F5800883023F040730B43C2F888302368990314
:101F680040F14F81284FBB6DDA0040F176814FF088
:101F78000008DFF89890D9F8003043F48073C9F866
:101F88000030FEF7DFFD8246D9F80030DB053FD58B
:101F9800002D44D1D7F8903013F4407315D0D4F8FD
:101FA8008420934211D0D7F89030D7F8902042F48B
:101FB8008032C7F89020D7F8902023F4407322F499
:101FC8008032C7F89020C7F89030D80709D5FEF7B7
:101FD800B9FD41F288390546D7F89030990740F1A4
:101FE8000981D7F89030D4F8842023F44073134340
:101FF800C7F89030354612E0002104F12000FFF7C1
:10200800D5FE9FE72E46A9E7001002400070004069
:10201800FEF798FDA0EB0A000228B5D90325B8F110
:10202800000F03D0BB6D23F08053BB652368DA072C
:1020380008D59049A06BD1F8882022F0030202430A
:10204800C1F888209F0708D58A49E06BD1F8882015
:1020580022F00C020243C1F888205E0708D58549A2
:10206800206CD1F8882022F030020243C1F8882081
:10207800180708D57F49606CD1F8882022F0C00283
:102088000243C1F88820D90608D57A49A06CD1F84E
:10209800882022F440720243C1F888209A0608D5A5
:1020A8007449E06CD1F8882022F440620243C1F8F8
:1020B80088209F0508D56F49E06DD1F8882022F463
:1020C80040220243C1F888205E0508D56949206E80
:1020D800D1F8882022F440120243C1F8882058061B
:1020E80008D56449206DD1F8882022F44052024373
:1020F800C1F88820190608D55E49606DD1F8882096
:1021080022F440420243C1F88820DA0508D559492B
:10211800A06DD1F8882022F440320243C1F888200B
:102128009B040FD5534AE16ED2F8883023F0406300
:102138000B43B1F1006FC2F8883064D1D36843F41F
:102148008013D36023681F030FD54A4A216FD2F842
:10215800883023F040630B43B1F1006FC2F8883038
:102168005CD1D36843F48013D36023685E030FD532
:10217800404A616FD2F8883023F040630B43B1F1D5
:10218800006FC2F8883054D1D36843F48013D36009
:102198002368580412D53749A26FD1F8883023F044
:1021A80040531343B2F1805FC1F888304CD102210B
:1021B800201DFFF76DFD002818BF05462268110491
:1021C80008D52C49E06FD1F8883023F080430343C9
:1021D800C1F88830D30309D5264AD4F88010D2F83C
:1021E800883023F000430B43C2F88830284602B0F9
:1021F800BDE8F087FEF7A6FC401B48457FF6ECAE2D
:102208000CE7354612E7B1F1806F9BD10121201D03
:10221800FFF73EFD002818BF054693E7B1F1806F30
:10222800A3D10121201DFFF733FD002818BF054663
:102238009BE7B1F1806FABD10121201DFFF728FD8D
:10224800002818BF0546A3E7B2F1005FB6D1022106
:1022580004F12000FFF7AAFDADE7BB6D43F0805302
:10226800BB65BB6D03F080530193019B4FF00108E0
:102278007FE600BF00100240024A136843F00403DF
:10228800136070470010024003685A6822F0E002A9
:102298005A604268B2F5827F0AD18268B2F5004F6F
:1022A80002D0B2F5806F03D11A6822F040021A609A
:1022B800826AB2F5005F07D11A6822F400521A60E8
:1022C8001A6842F400521A60012380F85D30002336
:1022D80080F85C300320704770B504460D461646FA
:1022E8002368986810F0800000D170BD6A1CF8D08F
:1022F800FEF728FC801B8542F2D82046BDE87040D6
:10230800FFF7C2BFF8B505460C4616461F462968B2
:102318008868204000D1F8BDB4F5C06F08BF0B7BBA
:10232800731CF5D0FEF70EFCC01B8642EFD828467A
:10233800BDE8F840FFF7A8BF70B513460D4616462E
:102348000A464FF4C0510446FFF7DCFF28B1236E5C
:1023580043F02003236603200FE032462946204637
:10236800FFF7BAFF0028F2D133462A464FF4C0617E
:102378002046FFF7C7FF0028E9D170BD704770B548
:10238800044600284AD00023836290F85D3003F0A9
:10239800FF021BB980F85C20FFF7F0FF02232168D9
:1023A80084F85D300B68E26823F04003B2F5E06F13
:1023B8000B604FF000032ED91846B2F5706F18BFA6
:1023C800A362236B2BB9B2F5E06F8CBF0223012304
:1023D8002363A6686368A56933432669334366693E
:1023E8003343E6693343266A3343A66A334305F425
:1023F800007633430B60636A1A43636B2D0C1A43F0
:1024080005F004052A430243012300204A602066A0
:1024180084F85D3070BD4FF48050D0E7012070BD66
:102428002DE9F8431E4690F85C30089F012B0446BE
:102438000D46914600F01581012380F85C30FEF7C7
:1024480081FB94F85D306168DBB2012B80460AD0CD
:10245800B1F5827F40F00381A068002840F0FF803A
:10246800042B40F0FC80002D49D0B9F1000F46D074
:10247800002E44D094F85D30E2682068C4F840909B
:10248800042B1CBF052384F85D3000232366B2F5B6
:10249800E06FA4F84660E687E3642365A4F8446027
:1024A800A563A687436801D8012E2AD923F480534F
:1024B800436003685B065EBF036843F04003036044
:1024C800B2F5E06F56D909B1012E07D135F8023BB4
:1024D800C360E38FA563013B9BB2E3870125E38FCC
:1024E8009BB28BB9B4F846309BB26BB942463946B9
:1024F8002046FFF721FF002834D02023236601203F
:1025080030E043F48053D3E72268936899070DD5E8
:10251800E38F9BB253B14DB1A36B33F8021BD1606B
:10252800A363E38F013B9BB2E38700259368DB0736
:102538000FD5B4F846309BB25BB1236CD26823F850
:10254800022B2364B4F84630013B9BB2A4F8463012
:102558000125FEF7F7FAA0EB08008742BFD87E1CDA
:10256800BDD00320012384F85D30002384F85C305B
:10257800BDE8F88309B1012E0BD1E38F9BB2012B83
:1025880051D935F8023BC360E38FA563023B9BB288
:10259800E3870125E38F9BB223B9B4F846309BB299
:1025A800002BA3D022689368980711D5E38F9BB2BC
:1025B80073B16DB1E38F9BB2012BA36B3BD933F899
:1025C800021BD160A363E38F023B9BB2E387002524
:1025D80022689368D9071DD5B4F846309BB2CBB1B1
:1025E800B4F846309BB2012B236C2CD9D16823F860
:1025F800021B2364B4F84630023B9BB2A4F8463071
:10260800B4F846309BB2012B03D8536843F4805387
:1026180053600125FEF796FAA0EB08008742B9D867
:102628007B1CB7D09DE72B780373A36B0133A3639F
:10263800E38F013BABE71B781373A36B0133A363F1
:10264800E38F013BC1E7127B1A70236C01332364CB
:10265800B4F84630013B9BB2A4F84630D9E70220D3
:1026680080E70220BDE8F88370470000036830B5B2
:1026780059689A6802F04105012D85B0044605D1D4
:102688004D0603D5C36C984705B030BD950704D5F2
:10269800080602D5236D2046F5E712F4B07FF3D083
:1026A8008D06F1D550060FD594F85D0003284FF03C
:1026B80000054CD0206E40F0040020660095D868D4
:1026C800009098680090009895060CD5206E40F010
:1026D800010020660020029098680290186820F097
:1026E800400018600298D00508D5226E42F0080212
:1026F8002266002203929A680392039A226E002AA5
:10270800C2D05A6822F0E0025A60012284F85D20A3
:102718008A0723D05A68A06D22F003025A6040B19C
:10272800104B8363FEF732FB18B1236E43F040036E
:102738002366606D0028A7D00A4B8363FEF726FB4B
:102748000028A1D0236E43F0400323669CE701953F
:10275800DA6801929B680193019B95E72046FFF791
:1027680083FF91E77127000808B5806A0023A0F865
:102778004630C387FFF778FF08BD90F85D007047C3
:1027880003681A6822F490721A609A6822F00102AB
:102798009A60202383670023036670477047704759
:1027A8000368DA69196870B5160704469D680AD186
:1027B800960664D58E0662D5036E002B00F08280E3
:1027C800BDE87040184715F0010002D111F4907F60
:1027D80055D0D50707D5CE0505D501251D62E56F6E
:1027E80045F00105E567950706D528B102251D6264
:1027F800E56F45F00405E567560706D528B10425B9
:102808001D62E56F45F00205E567150707D58E06D9
:1028180000D420B108201862E36F0343E367E36F35
:10282800002B4FD0950605D5880603D5236E0BB12E
:10283800204698472268E56F92685106204602D4E0
:1028480015F0080517D0FFF79BFF23689A68520612
:102858000DD59A68E06E22F040029A6038B11A4BA2
:102868008363FEF793FA68B3E06E836BA8E72046AC
:10287800FFF795FF70BDFFF792FFE56770BDD602C1
:1028880009D5680207D54FF4801220461A62BDE8C0
:10289800704000F09EBA160605D50D0603D5636E86
:1028A80083B120468CE750060CD54A060AD51A682B
:1028B80022F040021A6020236367002363662046E3
:1028C800FFF76CFF70BD00BFD528000808B5806A07
:1028D8000023A0F85A30A0F85230FFF760FF08BD77
:1028E8000268C169F8B5044683680069156803433E
:1028F80060690343BA480B43284003431360536895
:10290800E06823F4405303435360B64BA0699A42EE
:102918001CBF236A1843936823F43063034393600E
:10292800B14B9A4219D103F55843B04AD3F88830CD
:1029380003F00303B1F5004FD35C40F03881082B56
:1029480000F28F80DFE813F01A01CA00F9008D0049
:1029580014018D008D008D003600A54B9A4207D1D9
:1029680003F5E633A34AD3F8883003F00C03E1E714
:10297800A14B9A4223D103F5E433D3F8883003F00E
:102988003003102B00F0F1800BD8002B00F0F380FF
:10299800B1F5004F4FF001024FF0000300F0F8804E
:1029A800A8E0202B00F0C680302BF1D1B1F5004F04
:1029B80040F0B8806068430803F58033C3E08F4B6C
:1029C8009A421ED103F5E233D3F8883003F0C003EE
:1029D800402B00F0BB800AD87BB9824B9A4240F06A
:1029E800CA80FFF731F90023B0BB02463AE0802BDA
:1029F80000F09D80C02B00F0B0807A4B9A42C7D17E
:102A08002FE07F4B9A4211D103F5E033D3F8883099
:102A180003F44073B3F5807F00F09880DCD9B3F5F8
:102A2800007F00F08480B3F5407FE4E76D4B9A4265
:102A3800AED103F5C833D3F8883003F44063B3F557
:102A4800806F00F08380C7D9B3F5006F6FD0B3F5FE
:102A5800406FD0E76B480223626802EB4201814273
:102A680005D901220023236663661046F8BDB0EB42
:102A7800023FF6D8082B2ED8DFE803F0052D1C2DD1
:102A8800242D2D2D2700FFF7DFF862684FF48071A1
:102A980056080027E1FB0067002330463946FDF75A
:102AA80097FD0022584BA0F540719942D9D8236868
:102AB800D860D7E75548550800230021401941F14F
:102AC8000001ECE7FEF77AFDDFE75008002100235C
:102AD80010F50000F3E701220020E3E7FFF7C6F84E
:102AE8004EE0FFF7B1F8626800EB5203B3FBF2F374
:102AF8009BB20022A3F110004FF6EF718842B0D8C4
:102B08002168CB60AEE7FFF7B1F8ECE760684308EF
:102B180003F5740303F51053B3FBF0F3E8E7FEF78E
:102B28004DFDE0E76068430803F50043F4E72D4BEB
:102B38009A428FD0B1F5004FE8D16068430803F19D
:102B4800F47303F59043B3FBF0F31FE0254B9A426F
:102B58000BD1FEF733FD042346E7224B9A427FF45C
:102B680025AF4FF40040082376E7B1F5004FD6D1E2
:102B7800FEF724FD04E0B1F5004FB2D1FFF764F889
:102B880061684A0802EB4003B3FBF1F39BB20022F1
:102B9800A3F110004FF6EF7188423FF662AF23F0C1
:102BA8000F012068C3F342030B43C3605AE7082BA5
:102BB8003FF657AF01A252F823F000BFEB2A0008F6
:102BC8000F2B0008152B00086B2A0008272B00087C
:102BD8006B2A00086B2A00086B2A00082D2B0008B6
:102BE800F369FFEF008000400038014008560008F4
:102BF800004400400C56000800480040004C0040CB
:102C0800005000400024F400FFFC0F00000024F4F2
:102C1800436ADA0710B506D50168846A4A6822F45F
:102C2800003222434A609C0706D50168C46A4A6894
:102C380022F4803222434A60590706D50168046BA2
:102C48004A6822F4802222434A601A0706D501689E
:102C5800446B4A6822F4004222434A60DC0606D5E7
:102C68000168846B8A6822F4805222438A6099063C
:102C780006D50168C46B8A6822F4005222438A6030
:102C88005A060FD50168046C4A6822F48012224360
:102C9800B4F5801F4A6005D14A68446C22F4C0022A
:102CA80022434A601B0606D50268816C536823F4E8
:102CB80000230B43536010BD2DE9F041069D0446E7
:102CC8000F46164698462168CA6937EA02030CBFC0
:102CD80001220022B24202D00020BDE8F0816B1C24
:102CE800F2D0FDF72FFFA0EB0800854201D3002D9D
:102CF800E9D123681A6822F4D0721A609A6822F01F
:102D080001029A6020236367A367002384F8703068
:102D18000320BDE8F08173B504460026C667FDF7B9
:102D280011FF23681B681A07054615D423681B681A
:102D38005B070AD56FF07E43009300222B464FF4C1
:102D480080012046FFF7B8FF90B920230020636771
:102D580084F87000A3670CE06FF07E43009332465E
:102D680003464FF400112046FFF7A6FF0028DDD0E8
:102D7800032002B070BD10B5044640B3436F1BB9C1
:102D880080F8703002F0E8F922682423636713683A
:102D980023F0010313602046FFF7A2FD012816D097
:102DA800636A13B12046FFF733FF23685A6822F499
:102DB80090425A609A6822F02A029A601A6842F091
:102DC800010220461A60BDE81040FFF7A4BF0120A9
:102DD80010BD70470A4B013B01D1032070470269BF
:102DE800002AF8DA0369064A43F001030361013A4D
:102DF800F3D0036913F00103F9D11846704700BFF7
:102E0800410D030084B038B505AD85E80E000A9B76
:102E1800012B044619D1836B23F480338363C36881
:102E280023F4840323F04003C360C36823F44013EE
:102E3800C360119B012B02BFC36843F48013C360B6
:102E4800BDE8384004B0FFF7C5BFC36843F040038E
:102E5800C360FFF7BFFF0E9B3BB9A36B43F48033FE
:102E6800A363BDE8384004B07047A36B23F48033F4
:102E7800F6E7836823F0010383600020704708B5F4
:102E8800C368012923F0C043C36008D1C36843F075
:102E98000053C3603220FDF75BFE002008BD19B95E
:102EA800C36843F08043F4E7012008BD890141F07D
:102EB8002001064A0161013A05D0036913F0200395
:102EC800F9D1184670470320704700BF410D030031
:102ED8001023064A0361013A05D0036913F0100371
:102EE800F9D1184670470320704700BF410D030011
:102EF800D0F800381943C0F80018002070470000C7
:102F080084B02DE9F843044609A880E80E000023A0
:102F1800139E0F46194603F1400204EB8202013367
:102F28000F2B5160F7D1A36B002E62D123F400134D
:102F3800A363236843F040032360236843F08003BE
:102F480023600023C4F8003ED4F80038C4F80038E1
:102F580003212046FFF7CCFF10212046FFF7A6FFEC
:102F68000146204604F50065FFF7B2FF002844D16A
:102F7800081C18BF012000232B6104F510626B6147
:102F88001946EB614FF0904E4FF0006C4FF67F38CA
:102F9800BB4234D1002104F530620F464FF0904E09
:102FA8004FF0006C4FF67F388B423BD12B6923F4EE
:102FB80080732B610023A3616FF080436361A36971
:102FC80043F01003A361A269204B1343A3610F9B35
:102FD8001BB1A36943F00803A361012E01BFA369D4
:102FE80043F0804343F00403A361BDE8F84304B011
:102FF800704743F40013A363A3E70120BBE7D2F8AB
:103008000090B9F1000F0BDA3BB9C2F800C01161AA
:103018000133C2F808802032BAE7C2F800E0F6E7C8
:103028001160F4E7D2F80090B9F1000F0BDA39B962
:10303800C2F800C017610131C2F808802032B3E736
:10304800C2F800E0F6E71760F4E700BF00383C80FC
:1030580008B5D0F8043843F00203C0F80438032058
:10306800FDF776FD002008BD70B58AB000248DF804
:1030780004008DF805108DF806202146182204A8B2
:103088001E460294CDF80B4002F0C7F93F23ADF875
:1030980010308A23ADF8123001AB0693032307934F
:1030A80002AD0723214604A80895099300F094FB74
:1030B800A04215DB9DF8080080B9029A9DF80B30F4
:1030C800C2F30F2232809DF80C2043EA02230E9AA5
:1030D8001380039B0F9AC3F30F2313800AB070BDAC
:1030E800FF20FBE72DE9F0418AB000248DF80400A9
:1030F800884616462146182204A81D460294CDF893
:103108000B4002F08AF93F23ADF810308A23ADF85E
:10311800123001AB06930123079302AF0723214620
:1031280004A80897099300F057FBA04215DB9DF807
:10313800080078B9029A9DF80C30C2F30F22A8F85B
:1031480000209DF80B2042EA03223280039AC2F342
:103158000F222A800AB0BDE8F081FF20FAE770B597
:1031680092B09DF85C509DF864402E191A2E4FDCE1
:103178008DF82000ADF82110ADF823208DF825300A
:103188002A469DF8583018998DF826300AA88DF8E7
:10319800275002F037F905F1080312AA52FA83F30F
:1031A800093508AEEDB203F8284C22461A99701971
:1031B8002C4402F027F9E4B212AB2344BDF86C208A
:1031C80023F8282CA31C12AA52FA83F3BDF8702006
:1031D80023F8282C0021182202A802F01EF93F2308
:1031E800ADF808308323ADF80A3004340DF1070335
:1031F8000693E4B20123002102A8049605940793DC
:1032080000F0EAFA002805DB9DF8070012B070BD4F
:103218004220FBE7FF20F9E710B58EB08DF81C00BF
:103228008DF81D1002F110000DF11E0152F8044B2B
:1032380041F8044B8242F9D18DF82E309DF8403088
:103248008DF82F309DF844308DF83030129BCDF832
:10325800313018229DF84C308DF83530002101A806
:1032680002F0DBF83F23ADF804308623ADF80630D2
:1032780007AB03931A2304930DF10303059300216D
:10328800012301A8069300F0A7FA0028ACBF9DF817
:103298000300FF200EB010BD30B51F2891B00446C2
:1032A80025D810AD024605F8200D0DF1210002F0D9
:1032B800A9F81822002102A802F0AFF83F23ADF8C0
:1032C80008308E23ADF80A3001340DF10703069358
:1032D800E4B20123002102A804950594079300F0A5
:1032E8007BFA002805DB9DF8070011B030BD4220AD
:1032F800FBE7FF20F9E700B589B01822002102A8F2
:1033080002F08BF83F23ADF8083040F20113ADF816
:103318000A300DF1070306930021012302A8079341
:1033280000F05AFA0028ACBF9DF80700FF2009B04A
:103338005DF804FBF0B58DB001280CAE0CBF02247B
:10334800102406F82C0D17460DF1050022461D46DF
:1033580002F058F80CAB234403F82B7C0CAB1A1979
:10336800033402F82A5C0025182229460DEB0200D6
:10337800ADF800508DF8025002F04FF83F23ADF839
:1033880018304FF48173ADF81A302946032306A884
:1033980008960994CDF828D00B9300F01DFAA8429E
:1033A80009DB9DF8000020B9009B129AC3F30F2394
:1033B80013800DB0F0BDFF20FBE770B501298EB07A
:1033C8000CBF022410241646ADF81C0022468DF8C6
:1033D8001E100DF11F0031461D4602F013F80EAB0A
:1033E8001A19134602F8195C9DF8482003F8182C9E
:1033F8000EAB23449DF84C2003F8172C0EAB234446
:103408009DF8502003F8162C0EAB23449DF8542049
:1034180003F8152C0EAB234400259DF8582003F81B
:10342800142C2946182201A8ADF800508DF8025036
:1034380001F0F3FF3F23ADF804304FF48273ADF889
:10344800063007AB039309340323294601A80494E3
:10345800CDF814D0069300F0BFF9A84209DB9DF817
:10346800000020B9009B179AC3F30F2313800EB0F6
:1034780070BDFF20FBE710B57A2BA8B01C462DDCE9
:10348800ADF82000ADF822108DF824202A998DF887
:1034980025301A460DF1260001F0B4FF182200214C
:1034A80002A801F0BAFF3F23ADF808304FF4837348
:1034B800ADF80A3008AB049306340DF10703069300
:1034C800E4B20123002102A80594079300F084F9CF
:1034D800002805DB9DF8070028B010BD4220FBE757
:1034E800FF20F9E700B589B01822ADF804000021E3
:1034F80002A801F092FF3F23ADF8083040F22713ED
:10350800ADF80A3001AB0493022305930DF10303D0
:1035180006930021012302A8079300F05DF9002813
:10352800ACBF9DF80300FF2009B05DF804FB10B59F
:103538000C467E2CA8B0114627DC22468DF82000C8
:103548000DF122008DF8214001F05CFF18220021C6
:1035580002A801F062FF3F23ADF808300C23ADF854
:103568000A3008AB049302340DF107030693E4B262
:103578000123002102A80594079300F02DF90028E3
:1035880005DB9DF8070028B010BD4220FBE7FF20AF
:10359800F9E700B589B018228DF804008DF80510F8
:1035A80002A8002101F039FF3F23ADF808300F23AE
:1035B800ADF80A3001AB0493022305930DF1030320
:1035C80006930021012302A8079300F005F90028BB
:1035D800ACBF9DF80300FF2009B05DF804FB30B5CF
:1035E80085B00DF10E03009305460C4603AB0DF1B3
:1035F80009020DF10A0102A800F02FF8C0B268B95B
:10360800BDF80A10BDF80E200B0A2B7002F00F034C
:1036180043EA012302F0F0021343238005B030BDD2
:1036280000B589B01822002102A801F0F6FE032394
:10363800ADF80830ADF80A300DF107030693002104
:10364800012302A8079300F0C7F80028ACBF9DF833
:103658000700FF2009B05DF804FB2DE9F0430024C2
:103668008BB08146884617462146182204A81E4674
:10367800019402948DF80C4001F0CFFE0423ADF8BC
:1036880010300123ADF8123001AD0923214604A8FA
:103698000895099300F0A0F8A0421CDB9DF80400EF
:1036A800B0B99DF8053089F80030BDF80630A8F8A3
:1036B80000309DF808303B70029A9DF80B30C2F339
:1036C8000F2232809DF80C2043EA0223129A1380BD
:1036D8000BB0BDE8F083FF20FAE7F0B591B008AD74
:1036E800202406460F4622460021284601F095FE72
:1036F8001F2E3246394628BF1F220DF121008DF8B2
:10370800206001F07FFE1822002102A801F085FE4A
:103718000823ADF808300923ADF80A300DF1070386
:1037280006930021012302A804950594079300F04D
:1037380053F80028ACBF9DF80700FF2011B0F0BD7A
:1037480037B5084D0446204600F059F908B103B0D2
:1037580030BD01A9204600F091F90199284600F0F2
:1037680058F9F0E78405002070B508B10F4BD8610F
:1037780001F03AF90E480F4E0D4D00F03DF90E4894
:1037880000F03AF90024311928468C3400F04DF93C
:10379800B4F52F7FF7D1054C22680AB10020904775
:1037A800A36813B1BDE87040184770BDC000002081
:1037B8007C050020E000002084050020054B0268FD
:1037C8001A60C268DA6002691A6182699A6182685D
:1037D8009A607047C00000202DE9F043A5B04688E4
:1037E800B0F80080594FDFF86C910023044602A816
:1037F8000D46019300F000F9384600F051F9012810
:1038080053DD63882288277BA1688DF81370C3F382
:10381800090343EA822301228DF8102005A83A46BD
:10382800ADF8113001F0EEFD494B1B6913B1391D9C
:1038380004A89847002D78D1C6F3090545EA8825DC
:10384800444E424FADB2FDF77DF98046FDF77AF957
:10385800A0EB0800B0F57A7F4AD8304600F0CFF8E0
:103868000028F3D101A9304600F0F6F801990B7A47
:10387800042B09D1487A91F888300F28A3F1030264
:103888002CD01BD80E2852D0384600F0B8F80028A3
:1038980058D0304600F0B3F8002853D00199384684
:1038A80000F0C3F800230193CDE704A9484600F0CF
:1038B800D3F80499384600F0B8F89DE7102817D0D7
:1038C8003E28E1D1C87A62689042DDD11A1F636947
:1038D8009A4228BF1A4662610C311CE0B1F80D30DB
:1038E800AB4205D163680F2B0FD0CB7A002BCBD01E
:1038F800019911B1154800F08CF802A8FFF720FFD4
:103908004FF0FF3025B0BDE8F08363699A4228BFC5
:103918001A4662610B31206901F074FD0B48019968
:1039280000F077F802A8FFF70BFF0020EAE78A8982
:10393800AA42DDD19A1F63699A4228BF1A4662617A
:103948000E31E8E7019902A8AAE700BF7C0500202C
:10395800C00000208405002073B500230B4C0C4DDB
:103968000C4E0193204600F04AF808B102B070BD31
:1039780001A9204600F070F8EB6913B101980830EE
:1039880098470199304600F050F8EBE7840500208D
:10399800C00000207C05002037B5002313480193A0
:1039A80000F02DF8D8B901A9104800F055F8104BCF
:1039B800DB6893B10198802108309847C5B2019916
:1039C80085B10B7A81F88850042B0BD18B7AE81ECD
:1039D800834207D1074800F028F8002000E00120C2
:1039E80003B030BD014800F014F8F6E77C0500206C
:1039F800C000002084050020006040607047EFF39D
:103A0800108272B603681B1A5842584182F3108814
:103A18007047EFF3108372B602680A60486001606D
:103A28000A68516083F310887047EFF3108372B609
:103A380042684A60086041604A68116083F31088F0
:103A48007047EFF3108272B690E80A0019600168B7
:103A58004B6082F31088704738B50C46EFF3108539
:103A680072B603680B600068FFF7EBFF226800235B
:103A780013602268536085F3108838BD38B50C464A
:103A8800EFF3108572B643680B604068FFF7D9FF03
:103A98002268002313602268536085F3108838BDBC
:103AA800EFF3108172B602680023824203D181F3DA
:103AB80010881846704701331268F6E730B50121BF
:103AC80089B00020FCF73CFF0020FCF709FF00202C
:103AD800FCF7ACFF0020FCF77FFF374BC0B2187033
:103AE80000213648FFF740FE0DF11E010DF11700C9
:103AF800FFF775FDFFF794FD6420FDF729F89DF8A1
:103B08001740BDF81E50302C82BF2D4B01221A7071
:103B1800FDF718F82C44204401F088FC294D0024B6
:103B280001F0ACFC28550134052CF9D1D0236B7178
:103B3800244A06210020FFF7FAFCFFF7DCFB204BA4
:103B48001878012807AB0DF11A0213D18DE80C0083
:103B5800002106AB0722FFF787FA1B4B00930022D0
:103B6800BDF81A10BDF818000723FFF784FC0246B9
:103B780028B1FEE706A90120FFF7B4FAEDE7134BD9
:103B88000293012410230190009301460394072314
:103B98002046FFF741FB00B1FEE700F0E5FB00B16E
:103BA800FEE700F083FC00B1FEE704212046FFF7A2
:103BB800F0FC09B030BD00BF14000020A94F000878
:103BC8009C0300208C0500201956000840E20100E3
:103BD8002DE9F74FD64C23781BB101F061F900238A
:103BE80023700020FCF7A2FED24B1B68002B00F0CC
:103BF800FD81FCF7A7FF01F019FC01F03FFC04462A
:103C080001F03CFC052605466FF00042002384FBCA
:103C18000601FCF7DDFCFCF755FC0022C64BFCF75F
:103C2800D5FAFCF785FC07EE100AF2EE047A67EE87
:103C3800277A5020FDEEE77A6FF00042002385FBDB
:103C48000001CDED007AFCF7C3FCFCF73BFCBB4B55
:103C5800BDF90040BA4D0022FCF7B8FAFCF768FC41
:103C6800DFEDB87A07EE100A67EE277A2146FDEEF7
:103C7800E77A4FF0030817EE900A00F007FDB24B01
:103C88001C68132C00F2B78101F0F8FBA4FB08892B
:103C98004FEAE07B00FB09F308FB0B33A0FB0801AC
:103CA8006FF0004219440023FCF792FC2B680A309D
:103CB80003442B6001F0E2FBA4FB06674FEAE07BBC
:103CC80000FB07F306FB0B33A0FB060119446FF05A
:103CD80000420023FCF77CFC6B686FF00902101AA5
:103CE80003446B6001F0CAFB0723A4FB0323CDE95F
:103CF8000023019B009A4FEAE07B434302FB0B330E
:103D0800A0FB020119446FF000420023FCF760FC9D
:103D1800AB68DFF840B20A300344AB6001F0AEFB99
:103D280022194FEAE0714FF000035B41514300FB59
:103D38000313A2FB000119446FF000420023FCF7B3
:103D480047FCDBF8003064300344CBF8003001F066
:103D580095FBA50F4FEA840AC21700FB05F30AFB7F
:103D68000233A0FB0A0119446FF000420023FCF75C
:103D78002FFCDBF804306FF06302101A0344CBF811
:103D8800043001F07BFB86460620A4FB0023704626
:103D9800C11751430EFB0313A2FB0E0119446FF028
:103DA80000420023FCF714FCDBF80830674C643051
:103DB8000344CBF8083001F061FBC21700FB09F39C
:103DC80008FB0233A0FB08016FF0004219440023EE
:103DD800FCF7FEFB236803300344236001F04EFB2D
:103DE800C31745430AFB0355A0FB0A016FF00042C5
:103DF80000232944FCF7ECFB63686FF00202101AF9
:103E08000344636001F03AFB4FEAE07B00FB07F3F1
:103E180006FB0B33A0FB06016FF000421944002398
:103E2800FCF7D6FBA36803300344A36001F026FB2C
:103E380000FB09F34FEAE07B08FB0B33A0FB08010A
:103E48006FF0004219440023FCF7C2FB404C236882
:103E580064301B1A236001F011FB00FB07F34FEAE3
:103E6800E07906FB0933A0FB06016FF00042194414
:103E78000023FCF7ADFB636864300344636001F022
:103E8800FDFA019B009AC717434302FB0733A0FBC7
:103E9800020119446FF000420023FCF799FBA36864
:103EA80064301B1AA360264C284A2A49204600F091
:103EB8005FFB274800F0B8FB234A13680133282B1F
:103EC8001360204640F08E800023136023684FF46F
:103ED800FA6193FBF1F201FB1232002A40F09C8157
:103EE8005B42036043684FF4FA6193FBF1F201FB14
:103EF8001232002A40F092815B42436083684FF49B
:103F0800FA6193FBF1F201FB1232002A40F0898139
:103F18005B42104A836013684FF4FA6093FBF0F138
:103F280000FB1131002940F07E815B4214E000BFA4
:103F380015000020AC04002000003B4000408F40EA
:103F4800DC0400200000C842A0030020C0040020B8
:103F5800D0040020B4040020546813604FF4FA60C1
:103F680094FBF0F100FB1141002940F05E816442AE
:103F7800906854604FF4FA6190FBF1F501FB150568
:103F8800002D40F055814042906093FBF1F201FB17
:103F98001231AC4A002940F04D8113685B424FF45E
:103FA800FA61136094FBF1F301FB1344002C40F019
:103FB800438153685B424FF4FA61536090FBF1F31D
:103FC80001FB1300002840F03A8193685B4293603C
:103FD8009D4B1A6852421A605A6852425A609A684F
:103FE80052429A604FF47A70FCF7B2FD03B0BDE814
:103FF800F04FFFF7B1BC01F041FAA4FB08AB4FEA60
:10400800E07900FB0BF30AFB0933A0FB0A016FF010
:10401800004219440023FCF7DBFA6FF009082B680B
:10402800B8EB000003442B6001F028FAA4FB062338
:10403800CDE90023019B009AC717434302FB0733CE
:10404800A0FB020119446FF000420023FCF7C0FAFC
:104058006B680A3003446B6001F010FA0726A4FB72
:104068000667C21700FB07F306FB0233A0FB060135
:104078006FF0004219440023FCF7AAFAAB68B8EBCA
:1040880000001844A86001F0F9F922194FEAE07914
:104098004FF0000302FB09F15B4100FB0313A2FB95
:1040A800000119446FF000420023684DFCF790FAB4
:1040B8006FF063082B68B8EB000003442B6001F035
:1040C800DDF94FEA840EC2170EFB02F2A30F00FBC4
:1040D8000323AEFB00016FF0004219440023FCF7F4
:1040E80077FA6B68643003446B6001F0C7F9864661
:1040F8000620A4FB00237046C11751430EFB03138F
:10410800A2FB0E0119446FF000420023FCF760FA8D
:10411800AB68B8EB00001844A86001F0AFF94FEAAB
:10412800E07900FB07F306FB0933A0FB06016FF0FB
:10413800004219440023FCF74BFA424D6FF0020885
:104148002B68B8EB000003442B6001F097F9864612
:104158000920A4FB00237046C11751430EFB03132B
:10416800A2FB0E0119446FF000420023FCF730FA5D
:104178006B68033003446B6001F080F9C41700FBDF
:104188000BF30AFB0433A0FB0A016FF00042194449
:104198000023FCF71DFAAB682B4CB8EB0000184461
:1041A800A86001F06BF900FB07F34FEAE07906FB22
:1041B8000933A0FB06016FF0004219440023FCF705
:1041C80007FA2368C8300344236001F057F9C7177A
:1041D80000FB0BF30AFB0733A0FB0A016FF0004258
:1041E80019440023FCF7F4F9636896301B1A6360DE
:1041F80001F044F9019B009AC717434302FB0733B8
:10420800A0FB020119446FF000420023FCF7E0F91B
:10421800A3680A30034445E60A2362E66FF00903FF
:104228006BE60A2375E6642396E66FF063049FE65F
:104238006420A9E60323B2E66FF00203BBE603237A
:10424800C5E600BFC0040020D0040020B40400204C
:10425800014B01221A707047A403002007B54FF4E0
:104268008053009313460A4601460548FEF7D8F8DE
:10427800002814BF6FF00500002003B05DF804FBB0
:1042880094050020FCF75EBC0F4A4FF4E06108B5C6
:104298004FF4827CC1604FF4007180E804108161A2
:1042A80000221821826002614261C1610262072115
:1042B8004262826202630822C1624263FEF75FF8CB
:1042C800003018BF012008BD003C004030B5214A2D
:1042D800214C224B23601368591C89B0116013B11B
:1042E800002009B030BD2046FEF747FA05460028F1
:1042F800F6D11B4B9A6D42F400429A659A6D02F40E
:1043080000420192019ADA6C42F00402DA64DB6C32
:10431800059003F004030293029B12484FF4E05304
:104328000393022304930323069303A90623079305
:10433800FCF776FD2A4629463320FCF72FFC33206C
:10434800FCF760FC2046FFF79FFF0028C8D06FF0FD
:104358000700C6E7A803002094050020003C0040A1
:1043680000100240000800482DE9F04F4A496FF05C
:104378005A03B422CB708A71002387B09A224B71FA
:10438800CA71CB720B734B738B73CB7302256FF0AF
:104398001E020126414B0A724FF01B0A4FF0C50955
:1043A8004FF0D5084FF0110B81F800A081F801906B
:1043B80081F802800D7181F809B08E72324600933F
:1043C80028461023FEF7B6FF034618B1472007B06A
:1043D800BDE8F08F324C6FF05A02E2704FF03602AF
:1043E800A2716FF05302E2716FF01E0222724FF059
:1043F8001402A273294A6071E07220736073E0733B
:104408001088284A05920493042201931027122346
:1044180002920093039708232246294684F800A0B5
:1044280084F8019084F80280257184F809B0A67296
:10443800FEF7C3FF03460028C8D16FF05A02E270A6
:104448004FF03602A2716FF05302E2716FF01E0254
:104458002272E022A273114A6071E07220736073C5
:10446800E0731088104A0592042204930292019383
:104478000397009714232246294684F800A084F85D
:10448800019084F80280257184F809B0A672FEF7BD
:1044980094FF00289AD19AE7120600200E06002001
:1044A800FC050020F8050020100600202DE9F04F3B
:1044B8002B492C4D87B0B422002302248A714FF077
:1044C8001B0B9A224FF0C50A4FF0D5094FF0A508EB
:1044D800E12711264B71CA71CB720B734B738B7327
:1044E800CB7381F800B081F801A081F8029081F8BF
:1044F80003800C710F724E728C7204230095012296
:104508002046FEF717FF034628BB174A362191714C
:10451800AC21D17101219172517314495071D0723B
:1045280010739073D07382F800B0288882F801A0C5
:1045380082F8029082F8038014711772567204256B
:10454800059110218DE82A00049303910823214640
:10455800FEF733FF00B1472007B0BDE8F08F00BF7A
:10456800120600200C060020FC050020FA05002099
:1045780070B588B00D4614460646FCF7E3FAC00845
:104588008DF80C00FCF7DEFA73685B428DF80E308C
:104598001B128DF80F3033688DF810301B128DF810
:1045A8001130B3685B428DF812301B128DF813304E
:1045B8006B688DF814301B128DF815302B688DF848
:1045C80016301B128DF81730AB688DF818301B1297
:1045D8008DF8193063688DF81A301B128DF81B306E
:1045E80023688DF81C301B128DF81D30A3688DF8D8
:1045F8001E301B128DF81F30094B1988094BC00A51
:104608008DF80D00188803AB009300221423FEF7E1
:1046180032FF002814BF4720002008B070BD00BF3B
:10462800100600200E0600201FB50446FCF78AFA83
:10463800C0088DF80800FCF785FA23688DF80A3061
:104648001B128DF80B3063688DF80C301B128DF837
:104658000D30A3688DF80E301B128DF80F30094B02
:104668001988094BC00A8DF80900188802AB009315
:1046780000220823FEF7FFFE002814BF4720002071
:1046880004B010BDFA0500200C06002030B585B036
:1046980004460D46FCF756FAC0088DF80800FCF7EA
:1046A80051FA23128DF80B3023148DF80C300E4B71
:1046B8008DF80A4019880D4B8DF80E50C00A8DF8F8
:1046C8000900188802AB009324162D120823002233
:1046D8008DF80D408DF80F50FEF7CDFE002814BF61
:1046E8004720002005B030BDF80500200E06002048
:1046F8002D4B1B880133984237B50DD12B4A2C49D5
:104708002C48FFF735FF2C4B1888002849D003B0F8
:10471800BDE83040FEF7E6BE284B1B8801339842BF
:10472800F1D100F0ABFE044600F0A8FE05460520D6
:104738006FF00042002384FB0001FBF749FFFBF701
:10474800C1FE00221E4BFBF741FDFBF7F1FE07EE11
:10475800100AF2EE047A67EE277A6420FDEEE77A13
:104768006FF00042002385FB0001CDED017AFBF7D5
:104778002FFFFBF7A7FE0022124BBDF90440FBF701
:1047880025FDFBF7D5FEDFED107A07EE100A67EE80
:10479800277A2146FDEEE77A17EE900AFFF776FFB3
:1047A800B1E703B030BD00BF10060020C0040020F0
:1047B800B4040020DC040020B0040020F805002028
:1047C80000003B4000408F400000C842174B18488B
:1047D800DA6C30B542F00102DA64DB6C87B003F0C2
:1047E80001030093009B40230024019301A9114B6E
:1047F800029301250394FCF713FB4FF4807301A97E
:104808004FF090400193029503940494FCF708FB41
:104818004FF4005301A908480193029503940494A6
:10482800FCF7FEFAFFF752FD07B030BD001002405A
:104838000010004800001110000C004808B5402185
:104848000748FCF7C9FB4FF400510648FCF7C4FBC6
:104858004FF480714FF09040FCF7BEFB002008BD7C
:1048680000100048000C004808B500224FF4807181
:104878004FF09040FCF740FC0520FCF769F9012255
:104888004FF480714FF09040FCF736FC0520FCF7A0
:104898005FF9002008BD0000F0B587B00024FF23B1
:1048A8008DF8063022460B2307460E461E488DF823
:1048B80008304FF400518DF809408DF80A408DF802
:1048C8000B408DF80C40FCF717FC052204A902A840
:1048D800FFF7C4FC9DF81030022B22D19DF814502C
:1048E8009DF8133053EA052507D0AE4228BF2E465F
:1048F800E5B2B54204F1010408D301224FF4005196
:104908000948FCF7F9FB284607B0F0BD01220DF174
:1049180007010DF10600FFF7A1FC9DF807307B5554
:10492800E6E72546E9E700BF000C00482DE9F0431B
:1049380085B00A238DF80030002380460D468DF897
:1049480001308DF802308DF803308DF80430FCF713
:10495800F9F81B4EDFF86C90074600224FF400511F
:104968003046FCF7C9FB052202A96846FFF776FC2A
:104978009DF80830022B1AD19DF80930AB4219D3A3
:104988002A4649464046FFF769FC002401224FF4B5
:1049980000513046FCF7B0FBFCF7D4F8C01B0F28D9
:1049A8000BD8002CD9D1204605B0BDE8F0834FF0D4
:1049B800FF34EBE76FF00104E8E76FF00204F2E779
:1049C800000C0048AC03002010B5064C40212046DE
:1049D800FCF78CFB012804D10020FEF7DDFF00283E
:1049E800F4D010BD0010004810B588B0114B0193E9
:1049F800114B0293114B0593114B0493114C124B1D
:104A0800039301A8114B0793FEF7D8FE10492046DF
:104A1800FCF7E8F90F4A00212046FCF7DDF90022EF
:104A280011461720FCF7BAF81720FCF7EBF808B086
:104A380010BD00BFD54700084548000835490008A3
:104A4800A148000824060020714800088D4200088B
:104A580006000016D1490008F0B5B9B01424442264
:104A6800002105A800F0D9FC22460021684600F084
:104A7800D4FC0021882216A800F0CFFCFCF790FC9B
:104A8800224AD2F8903023F01803C2F890306023FD
:104A98000125022605940D9300242823072705A83D
:104AA800129307950B950C940F96109511951397E3
:104AB80014961596FCF7D0FD0F22042103236846AF
:104AC8008DE80C00029403940494FDF727F8104B2A
:104AD80016934FF0806331931823199316A84FF457
:104AE80080131D93249426942B9436941795189527
:104AF8001A971B961C96FDF7D7F94FF40070FCF730
:104B08005FFCFDF7B9FB39B0F0BD00BF00100240F3
:104B18008520010080B58AB0FBF7F8FFFFF79CFFFE
:104B2800142200210DEB020000F077FCB14BB248D3
:104B3800DA6CDFF8EC8242F01002DA64DA6C02F028
:104B480010020092009ADA6C42F00402DA64DA6C1D
:104B580002F004020192019ADA6C42F00102DA646E
:104B6800DA6C02F001020292029ADA6C42F0020256
:104B7800DA64DA6C02F002020392039ADA6C42F009
:104B88000802DA64DB6C03F00803049300224FF494
:104B98008A71049BFCF7B0FA002248F204114FF026
:104BA8009040FCF7A9FA00224FF214019348FCF751
:104BB800A3FA002241F281019148FCF79DFA0122F3
:104BC8004FF400518E48FCF797FA00224FF4107109
:104BD8008C48FCF791FA012220218848FCF78CFACE
:104BE8000122114684480024FCF786FA012540F288
:104BF800151305A980480593069507940894FCF7B2
:104C08000FF96A2305A97C480593CDF81880079405
:104C1800FCF706F94FF40053059305A97A4B794838
:104C280006934FF00B090794FCF7FAF83F2305A900
:104C380074480593022703264FF0080ACDF8189008
:104C48000794FCF7EDF805A94FF0904005960896F3
:104C5800CDF824A006970794FCF7E2F848F204136D
:104C680005A94FF090400593069507940894FCF722
:104C7800D7F805A94FF09040CDF814A009950697EC
:104C880007940894FCF7CCF8102305A94FF090403E
:104C980005934FF0050ACDF818900794FCF7C0F873
:104CA800E02305A94FF090400593089606970794CE
:104CB800CDF824A0FCF7B4F805A950480595CDF81F
:104CC80018800794FCF7ACF805A94C480597CDF86F
:104CD80018900794FCF7A4F84FF2340305A9474845
:104CE8000593069507940894FCF79AF84CF6044344
:104CF80005A943480593CDF818800794FCF790F868
:104D080043F2810305A93E48059306950794089444
:104D1800FCF786F84FF4107305A93A4805930695F1
:104D280007940894FCF77CF84FF4C07305A935483C
:104D38000593CDF818800794FCF772F805A9304858
:104D48000896059706970794CDF824A0FCF768F80D
:104D58007823059305A907232948089609930697F8
:104D68000794FCF75DF84FF44073059308961223F7
:104D7800042605A92148069307950996FCF750F8DB
:104D8800224621461720FBF709FF1720FBF73AFFB9
:104D9800214622462820FBF701FF2820FBF732FF97
:104DA8001A481B4B036006624FF48073194E057155
:104DB800836185628460C76004614461C461446240
:104DC800C4620463FBF76EFF134A144BF560304668
:104DD80086E80C00B46034617461B461F4613462D3
:104DE800FCF7A2F921463046FCF7EFF92146304698
:104DF80018E000BF001002400010004800040048FE
:104E0800000C004800080048000021102C06002073
:104E180020600140EC0A002000580040EC9C9010F3
:104E280000001110FCF7F7F9184819498560FF23AD
:104E380080E80A000561C46044618461FCF724FBD2
:104E48001448154B84604FF4E13580E828000C23A2
:104E58004361C46004618461C46104624462FDF713
:104E68008AFF0E484FF0A043062680E84800C76036
:104E78008761C4610462446284620463C462FCF7AB
:104E8800EFF9FEF71BFEFEF7A3FEFCE7380B002048
:104E9800001000A06406002000480040E40600203E
:104EA80070B5354A92B0106851680A228DF82D20E5
:104EB80009228DF830204B228DF8312075228DF88B
:104EC800322074228DF833208DF834205A228DF840
:104ED800352048228DF836204E228DF837200D22B5
:104EE8008DF8382009ABFF2203C38DF8392002233F
:104EF800224A8DF82C308DF83B30F4238DF83D3064
:104F080013788DF8403053788DF8413093788DF8C8
:104F1800423000240125D3788DF82E4008268DF8DC
:104F28002F608DF83A508DF83C408DF83F408DF851
:104F3800433013798DF84430214653798DF8453044
:104F480020468DF83E50FEF7C8FB09AB02934FF49C
:104F5800F0622B4606940594049403948DE850005F
:104F68004FF4C8612046FEF7FAF80BA91A20FEF79D
:104F780093F912B070BD00BF005600088C050020E0
:104F8800044A00231360044A01211170034A137074
:104F9800704700BFAC04002015000020CC0400209E
:104FA8000378042B1CD143783E2B05D0FF2B0DD062
:104FB800052B15D1FFF7E4BFC378012B10D10949A0
:104FC800B0F805200B60084B1A807047B0F8032032
:104FD80040F614439A4203D1B0F80700FFF788BBA4
:104FE800704700BFAC040020B00400200A4B1A6EC2
:104FF80042F001021A661A6E82B002F001020092B3
:10500800009A9A6D42F080529A659B6D03F0805326
:105018000193019B02B070470010024000B589B0AF
:105028001422002103A800F0F8F9134B1B6803BBF6
:1050380003F1804303F5043303A91A6E0F4842F0C5
:1050480080721A661A6E02F080720192019ADA6C06
:1050580042F01002DA64DB6C03F010030293029B47
:105068004FF4207303930223049306230793FBF75B
:10507800D7FE09B05DF804FBE804002000100048E2
:1050880010B5044688B01422002103A800F0C5F921
:105098002268134B9A4221D1124C1348E36C43F017
:1050A8000203E364E36C03F002030193019B4FF4F2
:1050B8004063039312230493012305930323069368
:1050C80003A904230793FBF7ABFEA36D43F4800306
:1050D800A365A36D03F480030293029B08B010BD7F
:1050E80000580040001002400004004810B5044673
:1050F80088B01422002103A800F08FF92268144B0D
:105108009A4222D103F1204303F5003303A91A6D13
:10511800104842F480721A651A6D02F48072019286
:10512800019ADA6C42F01002DA64DB6C03F01003C7
:105138000293029B4FF47C430393022304930323BB
:1051480006930A230793FBF76BFE08B010BD00BF58
:10515800001000A00010004810B5044688B01422C2
:10516800002103A800F059F92268134B9A4220D174
:1051780003F5E43303A99A6D104842F480229A6536
:105188009A6D02F480220192019ADA6C42F00802C8
:10519800DA64DB6C03F008030293029B4FF440735C
:1051A8000393022304930323069307230793FBF730
:1051B80037FE08B010BD00BF00480040000C004892
:1051C80010B5044688B01422002103A800F025F980
:1051D8002368B3F1A04F3CD1204CE36C43F00103AA
:1051E800E364E36C03F001030093009B03A94FF40D
:1051F80000734FF090400393FBF712FE4FF4E05317
:10520800039302230493002305930323069303A91E
:105218000A234FF090400793FBF702FEE36C43F438
:105228008053E364E36C03F480530193019BA36D03
:10523800DB0010D4A36D43F08053A365A36D03F086
:1052480080530293029BFCF7F1F8A36D23F080537F
:10525800A36508B010BDFCF7E9F8FAE700100240B2
:105268007047FEE7FEE7FEE7FEE7704770477047C6
:10527800FBF75CBC08B52020FBF74AFF0548FBF7A5
:10528800B7FD8020FBF744FF4FF48070BDE808406D
:10529800FBF73EBF240600200148FDF781BA00BF96
:1052A800F804002008B54FF48060FBF731FF4FF495
:1052B8000060FBF72DFF0648FBF79AFD4FF480408E
:1052C800FBF726FF4FF40040BDE80840FBF720BF7E
:1052D800040000200148FDF7C9B900BF940500206B
:1052E80008B50A4B1968024609B9094919601868CE
:1052F800694602448A4206D900F05AF80C23036032
:105308004FF0FF3008BD1A6008BD00BFEC04002054
:10531800800B00200F49D1F8883043F47003C1F89E
:1053280088300D4B1A68002042F001021A6098601C
:105338001A6822F0A85222F410221A604FF4805200
:10534800DA601A6822F480221A6098614FF00063CC
:105358008B60704700ED00E000100240DFF834D0A9
:10536800002103E00C4B5B58435004310B480C4BB5
:1053780042189A42F6D30B4A02E0002342F8043B53
:10538800094B9A42F9D3FFF7C5FF00F017F8FFF76A
:10539800C1FBFEE7008001207C56000800000020C9
:1053A8008000002080000020800B0020FEE7000025
:1053B800014B1868704700BF1C00002070B50D4EE7
:1053C8000D4CA41BA4100025A54209D10B4E0C4C72
:1053D80000F006F9A41BA4100025A54205D170BD54
:1053E80056F8253098470135EEE756F825309847A6
:1053F8000135F2E774560008745600087456000820
:105408007856000810B5431E0A44914200D110BDD9
:1054180011F8014B03F8014FF7E7024403469342A2
:1054280000D1704703F8011BF9E7000038B5124BAB
:105438001C68A36B0546D3B9182000F059F843F24D
:105448000E33A06303804AF6CD33438041F2342300
:1054580083804EF26D63C3804DF6EC6303810523B0
:1054680043810B23838101220023C0E90423A36B1A
:1054780000221D615A6138BD1C000020194B10B56F
:105488001C68A36BD3B9182000F032F843F20E332E
:10549800A06303804AF6CD33438041F234238380EE
:1054A8004EF26D63C3804DF6EC630381052343819F
:1054B8000B23838101220023C0E90423A16B0A483E
:1054C8000A694B69094C504304FB0300A2FB0423FF
:1054D8000132034443F10003C1E9042323F00040EF
:1054E80010BD00BF1C0000202DF451582D7F954C95
:1054F800024B0146186800F003B800BF1C000020EA
:1055080070B5CD1C25F0030508350C2D38BF0C25CA
:10551800002D064601DBA94203D90C233360002085
:1055280070BD00F05BF8234A1468214691B9224CFB
:1055380023681BB9304600F041F820602946304600
:1055480000F03CF8431C26D10C233360304600F0B1
:1055580046F8E4E70B685B1B1AD40B2B0FD90B60DA
:10556800CD50CC18304600F03AF804F10B00231D5A
:1055780020F00700C31A1BD05A42E25070BD8C427B
:105588000DBF63684B686360136018BF0C46E9E79A
:105598000C464968CAE7C41C24F00304A04205D09D
:1055A800211A304600F00AF80130CDD02560D9E73D
:1055B80070BD00BFF0040020F404002038B5064C8C
:1055C8000023054608462360FFF78AFE431C02D1E4
:1055D800236803B12B6038BD7C0B002070477047EF
:1055E800F8B500BFF8BC08BC9E467047F8B500BFC8
:0855F800F8BC08BC9E46704798
:10560000094B7574745A484E0104020800101010BA
:10561000041010100210101008426C75654E5247AD
:10562000000000000000000000010203040607085B
:10563000090000000001020304000000A086010030
:10564000400D0300801A060000350C0040420F0098
:1056500080841E0000093D0000127A000024F4003E
:0C56600000366E010048E801006CDC021E
:08566C009CAFFF7F010000006C
:04567400AD0100087C
:04567800890100089C
:10567C00003801400D000016000000000100000081
:10568C00100000000101000000093D002000002076
:10569C0000000000000000000000000000000000FE
:1056AC0000000000000000000000000000000000EE
:1056BC0000000000000000000000000000000000DE
:1056CC0000000000000000000000000000000000CE
:1056DC0000000000000000000000000000000000BE
:1056EC0000000000000000000000000000000000AE
:040000050800536537
:00000001FF
